:1000000012C02CC02BC02AC029C028C027C026C0BF
:1000100025C039C023C022C021C020C01FC01EC0BF
:100020001DC01CC01BC011241FBECFE5D4E0DEBF25
:10003000CDBF10E0A0E6B0E0EEE0F4E002C0059035
:100040000D92A236B107D9F720E0A2E6B0E001C0D8
:100050001D92A336B207E1F72AD0D7C1D1CF62955E
:10006000660F660F607C67B9806886B9089597B19E
:10007000892B87B90895369A3699FECF84B125B178
:1000800090E0922B08951F920F920FB60F921124B9
:100090008F9313BE83E882BF81E08093620082E089
:1000A00083BF8F910F900FBE0F901F901895CF9325
:1000B000DF93CDB7DEB72E970FB6F894DEBF0FBE35
:1000C000CDBF19821A821B8269D184E061D02FEFE3
:1000D00081EE94E0215080409040E1F700C00000A4
:1000E000A39AAB98A29AAA9AA598AD9861E086E0E7
:1000F000B6DF80E0BCDFBFDF1D868AE08C871C8214
:100100006894CC24C1F8C8861D8295E09F83DD24C5
:10011000D394DA86198693E09E83DB868E87E12C62
:10012000F12C03E015E022E030E041E051E06AE02C
:1001300070E055D00F2EF5E0EF2EF02D02E112E524
:1001400023E433E247E850E060E070E080E19BD0D8
:10015000E8D0D9BEC3BE83E882BF789480916200A4
:100160008823E1F380E690E024D185DF89839A83B8
:100170008B818F5F8B8340E063E0CE010196E2D0FC
:100180009D99FECF67E080E21AD010926200E6CF20
:1001900097B39C6297BBBC98982F937090659DB95C
:1001A000869586958EB908958FB9779BFECF8FB1CE
:1001B00008958FEF8FB9779BFECF8FB10895CF93BE
:1001C000C82FAA98862F8062EFDF8C2FEDDFAA9AC6
:1001D000CF910895AA98E8DFECDFAA9A0895EF92EC
:1001E000FF920F931F93CF93DF93CDB7DEB72B977B
:1001F0000FB6F894DEBF0FBECDBFE982FA820B8343
:10020000588769877A878B87220F220F80E1189F92
:10021000B0011124622B362B842F880F60E0832BD2
:10022000CEDF898520E1829FC00111249A8564E098
:10023000892BC5DF2B81822F880F998140E8949FFD
:1002400090011124282B8A81880F880F880F66E07F
:10025000822BB5DF65E08B85B2DF6DE18885AFDF8E
:1002600061E080E0ACDF62E080E0A9DF2B960FB6B2
:10027000F894DEBF0FBECDBFDF91CF911F910F91DC
:10028000FF90EF9008959F92AF92BF92CF92DF922E
:10029000EF92FF920F931F93CF93DF93B82EC22F4D
:1002A000D32FF42ED52EC62E972E85E08E1560F115
:1002B00063E08EEF8E0D83DFAA988B2D806274DF52
:1002C000AE2CB12C81E0A81AB108DAF0E12C802F15
:1002D0006BDF202F312F4C2F5D2F6F2D7D2D8C2D1F
:1002E000992D08E076D0022F132FC42FD52FF62E8C
:1002F000D72EC82E992EE3948E2D90E0A816B9061D
:1003000034F7AA9A81E001C080E0DF91CF911F917C
:100310000F91FF90EF90DF90CF90BF90AF909F90A4
:10032000089580E057DF81FD0BC060E0826047DF09
:1003300087EB9BE00197F1F700C0000081E0089592
:1003400080E00895EF92FF920F931F93CF937C016B
:10035000062FAA98411102C080EB01C080EA24DF79
:1003600010E00150110962F0C0E0F701EC0FF11D3F
:1003700080811ADFCF5F8C2F90E008171907ACF748
:10038000AA9AA39AAB9A8DE18A95F1F70000AB98EF
:10039000CF911F910F91FF90EF90089588E18AB956
:1003A00086E880BD8CE089B908958CB95D9BFECF4D
:1003B0000895CF93DF93EC018881882329F021965B
:1003C000F4DF89918111FCCFDF91CF91089597FBE4
:1003D00010F8169400080F93083098F00850232F57
:1003E000342F452F562F672F782F892F902DF4CF3C
:1003F0000594979587957795679557954795379580
:0E04000027950A95AAF70F910895F894FFCF5B
:02040E003100BB
:00000001FF
