S01A00005749524C4553535F535045414B45525F52582E737265636E
S11300000C942A000C943F000C943F000C943F0085
S11300100C943F000C943F000C943F000C943F0060
S11300200C943F000C943F000C943F000C943F0050
S11300300C943F000C943F000C943F000C943F0040
S11300400C943F000C943F000C943F000C943F0030
S11300500C943F0011241FBECFE5D8E0DEBFCDBF16
S113006010E0A0E6B0E0EAE2F4E002C005900D92F0
S1130070A036B107D9F70E9441000C9413020C94E6
S11300800000CF93DF93CDB7DEB760970FB6F89437
S1130090DEBF0FBECDBF19821A821B821C821D8255
S11300A00E94EE0180E00E94AF002FEF83EC99E004
S11300B0215080409040E1F700C000008E9A96984D
S11300C08D9A959A8A989298BB9A8FEF8ABB1CBE98
S11300D08BE683BF1F861E861E8282E08A871F826C
S11300E083E0898781E08C878B871D868AE0888BF3
S11300F01886E12CF12C00E013E022E031E041E02D
S113010050E060E070E00E94D3000F2EF3E08F2EE9
S1130110F02DAA24A394C12C0F2EF5E0EF2EF02D80
S113012002E112E523E433E247E850E060E070E0E6
S11301308AE00E94AF01969A8299FECF63E0CE01D5
S113014001960E9480018A8190E0982F8827298156
S1130150822B96958795969587958CBFEDCF97B30F
S1130160906B97BBBE98982F937090659DB98695B8
S113017086958EB908958FB9779BFECF8FB1089578
S11301808FEF8FB9779BFECF8FB10895CF93C82F90
S11301909598862F80620E94BB008C2F0E94BB0022
S11301A0959ACF910895EF92FF920F931F93CF9357
S11301B0DF93CDB7DEB72B970FB6F894DEBF0FBE33
S11301C0CDBFE982FA820B83588769877A878B8748
S11301D0220F220F80E1189FB0011124622B362BCD
S11301E0842F880F60E0832B0E94C600898520E15C
S11301F0829FC00111249A8564E0892B0E94C60065
S11302002B81822F880F998140E8949F90011124BB
S1130210282B8A81880F880F880F66E0822B0E9422
S1130220C60065E08B850E94C6006DE188850E944A
S1130230C60061E080E00E94C60062E080E00E94A7
S1130240C6002B960FB6F894DEBF0FBECDBFDF916C
S1130250CF911F910F91FF90EF9008959F92AF92CD
S1130260BF92CF92DF92EF92FF920F931F93CF939F
S1130270DF93B82EC22FD32FF42ED52EC62E972E51
S113028085E08E1580F163E08EEF8E0D0E94C6002E
S113029095988B2D80620E94BB00AE2CB12C81E01E
S11302A0A81AB108EAF0E12C802F0E94BB00202F8D
S11302B0312F4C2F5D2F6F2D7D2D8C2D992D08E026
S11302C00E94F701022F132FC42FD52FF62ED72EFD
S11302D0C82E992EE3948E2D90E0A816B90624F723
S11302E0959A81E001C080E0DF91CF911F910F9139
S11302F0FF90EF90DF90CF90BF90AF909F900895C4
S1130300CF92DF92EF92FF920F931F93CF936C01E2
S1130310E62E9698959881E60E94BB00F12C81E028
S1130320E81AF10872F0C0E086010C0F111D0E945A
S1130330C000F8018083CF5F8C2F90E0E816F906A7
S11303409CF7959A67E080E40E94C600969ACF9144
S11303501F910F91FF90EF90DF90CF9008958F92AF
S1130360AF92CF92EF92FF920F931F93CF93DF93AD
S1130370CDB7DEB7F82E0E942E01882329F180E242
S11303808815F8F067E06F0D882D0E94C600CC2018
S113039051F061E081E096EF9F0D01C0880F9A95BE
S11303A0EAF70E94C600AA2071F096EF9F0D62E062
S11303B081E001C0880F9A95EAF70E94C60081E0A7
S11303C003C080E001C081E0DF91CF911F910F91C4
S11303D0FF90EF90CF90AF908F90089588E18AB905
S11303E086E880BD89E189B9089597FB10F81694D1
S11303F000080F93083098F00850232F342F452F0E
S1130400562F672F782F892F902DF4CF0594979529
S113041087957795679557954795379527950A95C5
S10D0420AAF70F910895F894FFCF96
S9030000FC
